:100000000C9440000C945D000C945D000C945D0019
:100010000C945D000C945D000C945D000C945D00EC
:100020000C945D000C945D000C941E010C945D001A
:100030000C945D000C945D000C945D000C945D00CC
:100040000C945D000C945D000C945D000C945D00BC
:100050000C945D0037383941343536423132334300
:100060002A3023444B657920436F64653A20257517
:10007000204B657920436861723A202563200A008D
:1000800011241FBECFE5D8E0DEBFCDBF10E0A0E653
:10009000B0E0EEEFFAE002C005900D92AE37B10786
:1000A000D9F721E0AEE7B0E001C01D92A335B20759
:1000B000E1F70E944B020C947D050C94000080EF48
:1000C0008ABB8FEF8BBBE0E8F0E08FE78183808312
:1000D000089580917F000895E82FF0E0EC5AFF4FDB
:1000E0008491089580917F00882329F010927F00E9
:1000F0008091610008958FE708950E9472008F3704
:1001000031F0E82FF0E0EC5AFF4F849108958EE52E
:100110000895CF93DF9300D000D0CDB7DEB78091A4
:10012000700090917100A0917200B091730089836A
:100130009A83AB83BC83FE01359694E082918BBB9E
:1001400030E020E0822F49B350E0022E02C05595E6
:1001500047950A94E2F740FD10C08450890F903112
:1001600019F09C5F8F3751F39FEF9BBB0F900F905F
:100170000F900F90DF91CF9108952F5F3F4F243064
:10018000310501F78FE7EBCFCF93DF9380918200AA
:100190008F5F80938200809182008230A8F1C091AD
:1001A0006000D0E00E948900C058DF4F88838091B2
:1001B0007E00882369F0E0916000F0E0E058FF4F96
:1001C00080818F3729F481E080937F0010927E0038
:1001D00080916000813051F42091800090918100E5
:1001E000291304C0909181009F3789F480916000A9
:1001F000811103C082E08093600080916000815093
:100200008093600010928200DF91CF9108959091C9
:100210008000909361009FE790938100909380000D
:1002200080937E00E3CFF89485B7806885BF78948B
:10023000889585B78F7785BF789408951F920F9220
:100240000FB60F9211242F933F934F935F936F93A9
:100250007F938F939F93AF93BF93EF93FF930E94EE
:10026000C400FF91EF91BF91AF919F918F917F91CA
:100270006F915F914F913F912F910F900FBE0F9013
:100280001F90189589E089B988E18AB90895CF93BC
:10029000C82F873061F4609151017091520185E758
:1002A00090E00E947F0290E080E0CF9108958A3034
:1002B00019F48DE00E9447015D9BFECFCCB9F3CFCE
:1002C000CF92DF92EF92FF920F931F93CF93DF9322
:1002D000182F092F80914B0190914C01892BC1F46B
:1002E000C3E8D0E06E015F9BFECF5C99D1C05B9903
:1002F00055C08CB18D3039F58AE08883612F702F1D
:100300000E94470183E890E090934C0180934B0159
:10031000E0914B01F0914C01CF01019690934C017B
:1003200080934B0180818A3021F410924C0110920D
:100330004B0190E0DF91CF911F910F91FF90EF90D3
:10034000DF90CF9008958A30B9F2893099F090EE1D
:10035000980F9F3510F0803AA8F091E0CA34D90781
:1003600059F4609151017091520185E790E00E942B
:100370007F02B9CF80E2F1CF8993612F702F0E9465
:100380004701B1CF853109F47EC058F4883071F04F
:10039000823109F441C0833009F0A5CF8FEF9FEF80
:1003A000C9CF8731D1F08F3709F09DCFE0E0C33856
:1003B000DE0709F008F497CF612F702F88E00E94C4
:1003C0004701612F702F80E20E944701612F702F3B
:1003D00088E00E944701219786CF7E01E701E3E88C
:1003E000EE16E0E0FE0609F008F47DCFF7018291F9
:1003F0007F01803209F477CF612F702F88E00E944F
:100400004701612F702F80E20E944701612F702FFA
:1004100088E00E944701E2CF612F702F8DE00E949B
:10042000470183E8E82E80E0F82EEC16FD0608F080
:100430005ACF612F702FF70181917F010E944701F0
:10044000F4CF612F702F88E00E944701612F702F39
:1004500080E20E944701612F702F88E00E944701CF
:10046000F1E0EF1AF10883E8E81680E0F80609F0F9
:1004700040F790E0C338D90740F0C6018C1B9D0BB4
:10048000C80FD91F30CF7E01EECF80E090E0F8CFCB
:100490008EEF9FEF4FCF8BE083BF8FEE8CBF82E05C
:1004A00089BF0E94420182E690E090934E018093C2
:1004B0004D019093500180934F0185B78F7885BF90
:1004C0000E945F00789404E610E00E94690088238F
:1004D00099F00E947200C82F0E946C001F928F93A7
:1004E0001F92CF931F930F930E94A9020F900F901A
:1004F0000F900F900F900F900E941301E6CFEF9294
:10050000FF920F931F93CF93DF938B01DB01139621
:100510002C91E12CF12C21FD12C0EE24EA94FF2451
:10052000FA9411C0D8011896ED91FC91B801099583
:10053000892B21F0EE24EA94FF24FA94CE01EC01F9
:1005400089918111EFCFC701CDB7DEB7E6E00C94FA
:100550006E05B0E0A0E0EFEAF2E00C945405FE0175
:100560003796619171910DE411E0D80112968D9149
:100570009C91DC0113962C911397286013962C9371
:10058000AF010E94CF029C01D8011296ED91FC911F
:100590009381977F9383C901E4E00C947005AFE0E9
:1005A000B0E0E5EDF2E00C9446057C013B018A01E8
:1005B000DC0117961C921E92169713968C9181FF60
:1005C000BEC19AE0292EFE0131964F01D701139644
:1005D0009C91F30193FD859193FF81913F018823C5
:1005E00009F444C1853239F493FD859193FF8191DB
:1005F0003F01853229F4B70190E00E94B804E6CFAC
:10060000B12C412C512CBFE1B51538F08B3209F1DA
:1006100088F4803201F1833221F157FC3AC020ED99
:10062000280F2A3040F556FE1FC0B29C200D112421
:10063000B22E06C08D3291F0803379F7689450F86D
:10064000F30193FD859193FF81913F018111DBCFF0
:1006500020C0689451F8689452F8F2CF689453F827
:10066000EFCF689454F8ECCF429C200D1124422E19
:10067000689455F8E5CF8E3229F456FCF7C068949B
:1006800056F8DECF8C3619F4689457F8D9CF8836EF
:10069000B9F2982F9F7D95549330C0F08336A1F125
:1006A0008337C1F1833509F05BC0D801CD90DD906F
:1006B0008D016B2D70E056FC02C06FEF7FEFC6011D
:1006C0000E94A2045C01689457F80AC00C5F1F4F97
:1006D000EFE3E983AA24A394B12C6401E89457F8CA
:1006E00053FC04C04A141B0409F018F5342CA1145F
:1006F000B10431F5332009F469CFB70180E290E00D
:100700000E94B8043A94F6CFD8018C9189830E5F89
:100710001F4FE0CFF801C190D1908F016B2D70E099
:1007200056FC02C06FEF7FEFC6010E94AD045C0172
:10073000D5CFB70180E290E00E94B8044A94D2CFAE
:10074000F60157FC859157FE81916F01B70190E04A
:100750000E94B80431103A94B1E0AB1AB108C7CF87
:10076000843619F0893609F071C0F80157FE67C068
:1007700061917191819191918F01E52DEF76DE2E3E
:1007800097FF09C090958095709561957F4F8F4F29
:100790009F4F6894D7F82AE030E0A4010E94E80453
:1007A000C82EC818AC2C5D2CD6FE0CC0E89450F8AE
:1007B000CB1440F4D4FE05C0D2FC03C05D2D5E7E98
:1007C000552EAB2C54FE93C0FE01EC0DF11D808123
:1007D000803309F085C0652D697E562E752D7870A1
:1007E000372E53FC93C050FE8DC0BC2CA41410F4C3
:1007F000B40CBA1854FE90C0B70180E390E00E9498
:10080000B80452FE07C088E751FC88E590E0B701C4
:100810000E94B804CB1408F48BC0CA94D12C8FEF7B
:10082000C81AD80AC80CD91CD6018E916D01B7011F
:1008300090E00E94B8048C149D04B1F75BCF6191E5
:100840007191072E000C880B990B96CFD52CE8944C
:10085000D4F82AE0853729F1F52DF97FDF2E80378E
:10086000A1F058F48835A1F08F36D1F0F7018681D8
:1008700097812F96E2E10C9462058837B9F7D4FE90
:1008800002C06894D2F820E10CC06894D4F8F7CF85
:1008900054FE03C02F2F2660D22E20E132E002C08A
:1008A00028E030E0F801D7FE15C0419151916191E7
:1008B00071914C875D876E877F878F01A4016C855E
:1008C0007D858E859F850E94E804C82EC818E8940F
:1008D000D7F868CF81919191AC0170E060E0E9CFE9
:1008E00052FC02C0A3947ACFA394A39477CF852D12
:1008F000867809F473CFF6CFB70180E290E00E94CA
:10090000B804A394A414C0F3312C74CF342C3A1837
:10091000A41408F46FCFF8CF852D867809F47ACF28
:100920008BE251FE80E257FC8DE2B70190E070CF80
:10093000B70180E390E00E94B804BA946BCF8FEFC8
:100940009FEF97CFFC010590615070400110D8F7E0
:10095000809590958E0F9F1F0895FC016150704007
:1009600001900110D8F7809590958E0F9F1F0895E4
:100970000F931F93CF93DF93182F092FEB018B81D8
:1009800081FD09C01FEF0FEF812F902FDF91CF91D5
:100990001F910F91089582FF14C02E813F818C8199
:1009A0009D81281739073CF4E881F981CF01019630
:1009B0009983888310838E819F8101969F838E8384
:1009C000E3CFE885F985812F0995892BA1F3DACF4B
:1009D000FA01AA27283051F1203181F1E8946F9370
:1009E0006E7F6E5F7F4F8F4F9F4FAF4FB1E03ED016
:1009F000B4E03CD0670F781F891F9A1FA11D680FB4
:100A0000791F8A1F911DA11D6A0F711D811D911DE6
:100A1000A11D20D009F468943F912AE0269F11245B
:100A20003019305D3193DEF6CF010895462F4770BF
:100A3000405D4193B3E00FD0C9F7F6CF462F4F701A
:100A4000405D4A3318F0495D31FD4052419302D078
:100A5000A9F7EACFB4E0A69597958795779567951E
:100A6000BA95C9F700976105710508959B01AC011E
:100A70000A2E06945795479537952795BA95C9F745
:100A8000620F731F841F951FA01D08952F923F9220
:100A90004F925F926F927F928F929F92AF92BF928E
:100AA000CF92DF92EF92FF920F931F93CF93DF933A
:100AB000CDB7DEB7CA1BDB0B0FB6F894DEBF0FBE97
:100AC000CDBF09942A88398848885F846E847D84E4
:100AD0008C849B84AA84B984C884DF80EE80FD80E6
:100AE0000C811B81AA81B981CE0FD11D0FB6F8945C
:0E0AF000DEBF0FBECDBFED010895F894FFCF1D
:100AFE00017F0000000300000000470160010000BC
:0E0B0E007FBFDFEF002A72696E672A0A0000BF
:00000001FF
